:020000040800F2
:10000000000008242D0A0008950900089709000837
:10001000990900089B0900089D09000800000000DC
:100020000000000000000000000000009F09000820
:10003000A109000800000000A3090008A5090008A4
:100040007D0A00087D0A00087D0A00087D0A000874
:100050007D0A00087D0A00087D0A00087D0A000864
:100060007D0A00087D0A00087D0A00087D0A000854
:100070007D0A00087D0A00087D0A00087D0A000844
:100080007D0A00087D0A00087D0A00087D0A000834
:100090007D0A00087D0A00087D0A00087D0A000824
:1000A0007D0A00087D0A00087D0A00087D0A000814
:1000B0007D0A00087D0A00087D0A00087D0A000804
:1000C0007D0A00087D0A00087D0A00087D0A0008F4
:1000D0007D0A00087D0A00087D0A00087D0A0008E4
:1000E0007D0A00087D0A0008000000007D0A000863
:1000F0007D0A00087D0A00087D0A00087D0A0008C4
:100100007D0A00087D0A00087D0A00087D0A0008B3
:100110007D0A00087D0A00087D0A00087D0A0008A3
:100120007D0A00087D0A00087D0A00087D0A000893
:100130007D0A00087D0A00087D0A00087D0A000883
:1001400000000000000000000000000000000000AF
:100150007D0A00087D0A00087D0A00087D0A000863
:100160007D0A00087D0A00087D0A00087D0A000853
:100170007D0A00087D0A00087D0A00087D0A000843
:100180007D0A00087D0A00087D0A00087D0A000833
:100190007D0A00087D0A00087D0A00087D0A000823
:1001A0007D0A00087D0A00087D0A00087D0A000813
:1001B0007D0A00087D0A00087D0A00087D0A000803
:1001C0007D0A00087D0A00087D0A00087D0A0008F3
:1001D0007D0A00087D0A00087D0A00087D0A0008E3
:1001E0007D0A00087D0A00087D0A00087D0A0008D3
:1001F0007D0A00087D0A00087D0A00087D0A0008C3
:100200007D0A00087D0A00087D0A00087D0A0008B2
:100210007D0A00087D0A00087D0A00087D0A0008A2
:100220007D0A00087D0A00087D0A00080000000021
:100230007D0A00087D0A0008000000007D0A000811
:100240007D0A00087D0A00087D0A00087D0A000872
:100250007D0A00087D0A00087D0A00087D0A000862
:100260007D0A00087D0A00087D0A00087D0A000852
:100270007D0A00087D0A00087D0A000800000000D1
:100280007D0A00087D0A00087D0A000800000000C1
:08029000000000007D0A0008D7
:1002980010B5054C237833B9044B13B10448AFF3B8
:1002A80000800123237010BD10000024000000000E
:1002B800A01D000808B5034B1BB103490348AFF361
:1002C800008008BD0000000014000024A01D0008E4
:1002D800794B5A6912F4003280B59CB011D1BFF342
:1002E8004F8FBFF36F8FC3F85022BFF34F8FBFF309
:1002F8006F8F5A6942F400325A61BFF34F8FBFF3D0
:100308006F8F6D4A536913F4803323D1C2F8843058
:10031800BFF34F8FD2F8803043F6E074C3F3C900BF
:10032800C3F34E335B0103EA0406014646EA8175CE
:100338000139C2F86052F9D2203B13F1200FF2D1F3
:10034800BFF34F8F536943F480335361BFF34F8F2B
:10035800BFF36F8F00F0B6FB022000F093FD00237F
:100368000093564BDA6A22F00102DA62DB6A03F084
:1003780001030093524B9A6942F440429A619A6988
:1003880002F440420092009A9A699204FCD5002334
:10039800022201274FF480364FF0050EA0210425D4
:1003A800082409A80C9310931B931692189217957A
:1003B8001A931994CDE90976CDE91222CDE914E111
:1003C80001F052F800B1FEE703234FF03F0C4FF461
:1003D80080622946CDE901C34023CDE9030401A881
:1003E800CDE90533CDE9072301F08CFB00B1FEE729
:1003F80000F0D2F9044600B1FEE700F00FFC48F225
:100408001F7240F2011309A8ADF824700A94CDE9CF
:100418000B2300F021FC40F201234FF0104109A802
:10042800ADF82430274B0C96CDE90A1300F014FCE4
:10043800284600F001FCBFF34F8FBFF36F8F1E4AB1
:10044800536923F400335361C2F85042BFF34F8F0E
:10045800BFF36F8FC2F88440BFF34F8F536923F403
:1004680080335361BFF34F8FD2F8803043F6E07486
:10047800C3F3C900C3F34E335B0103EA0406014624
:1004880046EA81750139C2F87452F9D2203B13F15A
:10049800200FF2D1BFF34F8FBFF36F8F4FF0E023E0
:1004A800002209491A614FF01042536812680B6024
:1004B80082F308889847FEE700ED00E00004005842
:1004C800004802581A0000032C0000247B4BD3F884
:1004D800D42042F480422DE9F04FC3F8D42091B0E3
:1004E800D3F8D4200924764D002602F48042754FB3
:1004F8000BA9284600924FF04008009A4FF00A0BCB
:10050800DA6F4FF40079DFF8C4A142F48042DA6769
:10051800DA6F22F48042DA67D3F8E02042F0200252
:10052800C3F8E020D3F8E02002F020020192019AFB
:10053800D3F8E02042F00802C3F8E020D3F8E02026
:1005480002F008020292029AD3F8E02042F0200258
:10055800C3F8E020D3F8E02002F020020392039AC7
:10056800D3F8E02042F02002C3F8E020D3F8E020DE
:1005780002F020020492049AD3F8E02042F020020C
:10058800C3F8E020D3F8E02002F020020592059A93
:10059800D3F8E02042F04002C3F8E020D3F8E0208E
:1005A80002F040020692069AD3F8E02042F0800258
:1005B800C3F8E020D3F8E02002F080020792079AFF
:1005C800D3F8E02042F08002C3F8E020D3F8E0201E
:1005D80002F080020892089AD3F8E02042F0400224
:1005E800C3F8E020D3F8E02002F040020992099A0B
:1005F800D3F8E02042F04002C3F8E0204FF48062D4
:10060800D3F8E03003F040030A930A9B0223CDE9B4
:100618000B230323CDE90D630F9400F049FB01235D
:100628000BA93846CDF82C800D93CDF83CB000F0DE
:100638003FFB4FF400630BA923480B930D960F94CF
:1006480000F036FB04230BA950460F940B9300F0DF
:100658002FFB0BA92846CDF82C90CDF83CB000F024
:1006680027FB08230BA950460F940B9300F020FB9F
:1006780080230BA928460F940B9300F019FB0BA9B4
:100688003846CDF82C9000F013FB0BA92846CDF87E
:100698002C8000F00DFB4FF480430BA938460B93D8
:1006A80000F006FB32460F215C2000F063FA5C2064
:1006B80000F092FA11B0BDE8F08F00BF0044025874
:1006C8000014025800180258000C0258001C025866
:1006D80000B54FF4407395B04FF0407211480C9339
:1006E80005230F920222069300230B9206A9139367
:1006F8000093049303926A46CDE90D33CDE9113393
:10070800102302934FF48003059340F201130193E1
:1007180041F2883300F017FE003818BF012015B0E9
:100728005DF804FB3000002400B54FF4407395B029
:1007380041F2883217480C93062306A90693002332
:10074800CDE90D330F930B931393CDE9113300F0DB
:10075800FFFCE8B940F2022302224FF48001049022
:100768000C48CDE900331023CDE9023205236A464F
:10077800CDE905134FF0407306A90F9341F2883372
:1007880000F0E1FD003818BF012015B05DF804FB4A
:100798000120FAE730000024F0B57A4C9DB07A4B7E
:1007A8002046236000F0C3FC18B1012420461DB088
:1007B800F0BDFFF78BFE03260123C4E90163102374
:1007C800E3604FF0006393FAA3F3B3FA83F34FF4B3
:1007D80040756C48013B23610023C4E90553E3617C
:1007E8004023236200F054FC0028DED14FF48074CB
:1007F8006627099041F28832059069460D90069463
:100808000097CDE90700CDE90B005E4800F0A0FC99
:100818000028CAD1992641F288326946594800967B
:1008280000F096FC0028C0D141F28832694655484C
:100838000695009700F08CFC0028B6D141F288326A
:1008480069465048009600F083FC0028ADD1352356
:100858001790139041F288321B900EA914940E93AE
:10086800CDE91500CDE91900464800F071FC0028D3
:100878009BD1FFF72DFF002897D1B7231495179028
:100888000E9313901B90CDE91500CDE91900FFF7E1
:100898004BFF002889D141F288320EA9394800F06F
:1008A80057FC002881D1FFF713FF00287FF47DAFA4
:1008B800852200234FF440764FF040750E920222B5
:1008C8000EA93048ADF80030149617951393CDE96A
:1008D800182341F28832CDE91533CDE91A3300F0F7
:1008E80037FC00287FF461AF41F288326946254819
:1008F80000F0CAFC00287FF458AFFFF715FF044644
:1009080000287FF452AF812341F288320EA91D4896
:100918000E93BDF8003023F0F0031B051B0D43F4C4
:10092800004343F08003ADF8003000F011FC0028CC
:100938007FF43BAF41F288326946124800F04BFC25
:1009480000287FF432AFED236A460EA90D480E93B6
:100958004FF440631B9415934FF44053149611932E
:100968000523CDE9164513934FF000454FF080431A
:10097800CDE90044CDE9195300F035FD002818BF32
:10098800012413E730000024005000527047FEE7AE
:10099800FEE7FEE7FEE770477047704700F0C0B813
:1009A8001A491B48D1F8883043F4700310B5C1F8D0
:1009B8008830184B1A6842F001021A6000221A6146
:1009C8001C68204018609A61DA611A629A62DA62D9
:1009D8001A635A639A63DA631A645A64186820F4CB
:1009E800802018601A660C4B1B681B0C1B04B3F1A3
:1009F800005F03D2094B0122C3F80821084B43F2D8
:100A0800D2021A604FF000638B6010BD00ED00E069
:100A18007FEDF6EA004402580010005C00800051A7
:100A280000400052DFF834D0FFF7BAFF0C480D49F8
:100A38000D4A002302E0D458C4500433C4188C4231
:100A4800F9D30A4A0A4C002301E013600432A24297
:100A5800FBD301F07DF9FFF73BFC70470000082449
:100A68000000002410000024D01D000810000024FD
:100A780080000024FEE7704738B50F4B05461A780A
:100A88000AB9012038BD4FF47A73B3FBF2F30B4A6D
:100A98001068B0FBF3F000F0ADF804460028F0D180
:100AA8000F2DEED8024629464FF0FF3000F062F8CD
:100AB800034B20461D60E5E70800002400000024E1
:100AC8000C00002410B5032000F042F800F078FF75
:100AD8000F49104A8B69C3F30323D35C03F01F0348
:100AE800D8408B6903F00F03D35C0B4A03F01F0354
:100AF80020FA03F31360094B18600F20FFF7BCFFBF
:100B0800044618B9FFF7B7FF204610BD0124FBE7DC
:100B180000440258B81D0008040000240000002406
:100B2800034A044B11681B780B441360704700BFDD
:100B38007C00002408000024014B1868704700BF9F
:100B48007C000024014B1868000C70470010005C02
:100B580007490302CA6803F4E06322F4E06212045E
:100B6800120C134343F0BF6343F40033CB60704768
:100B780000ED00E0164B30B5DC68C4F30224C4F184
:100B88000703251D042B28BF0423062D4FF0FF352E
:100B98008CBF033C002405FA03F3002805FA04F58A
:100BA80021EA030322EA050203FA04F343EA0203F3
:100BB8004FEA0313DBB206DB00F1604000F5614049
:100BC80080F8003330BD00F00F00024A1354F9E7F3
:100BD80000ED00E014ED00E0002807DB01234109E7
:100BE80000F01F00024A834042F82130704700BFDE
:100BF80000E100E00138B0F1807F0BD24FF0E02334
:100C0800054AF0215861002082F8231007229861D4
:100C18001A6170470120704700ED00E0BFF35F8F55
:100C2800044B5A6A22F480325A620022C3F8942094
:100C3800704700BF00ED00E0064B40F00100C3F82C
:100C480094005A6A42F480325A62BFF34F8FBFF35E
:100C58006F8F704700ED00E04378144A10B5C2F872
:100C680098300178E9B14368C2F89C30C37A047BB4
:100C78001B0643EA04730B43817A43EAC143417B71
:100C880043EA8143817B43EA4143C17B43EA014311
:100C9800417A43EA0123017A43EA4103C2F8A030CA
:100CA80010BDC2F89C10C2F8A010F9E700ED00E0F2
:100CB8002DE9F74F0023DFF8C8914FF0B0440A68D8
:100CC80032FA03F502D103B0BDE8F08F4FF0010E00
:100CD8000EFA03FE1EEA020200F0BC804E684FEADC
:100CE80043084FF0030C06F003050CFA08FC6F1ECE
:100CF8006FEA0C0C012F34D8876807EA0C0ACF6812
:100D080007FA08F747EA0A078760476827EA0E0ED6
:100D1800C6F300179F4047EA0E074760C768022DD1
:100D280007EA0C0E8F6807FA08F747EA0E07C7604C
:100D380019D14FEAD30A03F0070B4FF00F0E00EB5F
:100D48008A0A4FEA8B0BDAF820700EFA0BFE27EAB4
:100D58000E0E0F6907FA0BF747EA0E07CAF820705C
:100D680001E0032DDAD1076805FA08F516F4403FCB
:100D780007EA0C0745EA070505606BD0D9F8F45077
:100D880023F0030703F0030C45F0020507F1B04711
:100D98004FEA8C0CC9F8F45007F58067D9F8F4507D
:100DA80005F002050195019D0F25D7F808E005FA21
:100DB8000CF52EEA050E314DA8424DD005F580659B
:100DC800A8424BD005F58065A84249D005F5806555
:100DD800A84247D005F58065A84245D005F580654D
:100DE800A84243D005F58065A84241D005F5806545
:100DF800A8423FD005F58065A8423DD005F580653D
:100E0800A8420CBF09250A2505FA0CF516F4801F1F
:100E180045EA0E05BD606FEA020725680CBF3D4034
:100E2800154316F4001F256065680CBF3D40154347
:100E380016F4003F6560D4F884500CBF3D4015435C
:100E4800F603C4F88450D4F8805054BF3D4015438D
:100E5800C4F88050013332E70025D5E70125D3E7F0
:100E68000225D1E70325CFE70425CDE70525CBE704
:100E78000625C9E70725C7E70825C5E70000025882
:100E88000044025838B5104CE36813F0040FE368C7
:100E980005D103F00703181A18BF012038BD23F045
:100EA80007031843E060FFF747FE054663689B04A5
:100EB80001D50020F2E7FFF73FFE401BB0F57A7F2F
:100EC800F4D90120EAE700BF004802582DE9F047AD
:100ED8004E6A36B1B2F1406F03D08B6A0468013BA9
:100EE8002361D1F818A0D1E9077EBAF1000F4CD0E0
:100EF8004C6905684FEA844C4AEA06040B68D1F845
:100F0800348044EA020AD1E90B09BEF1000F24D06B
:100F18008E684AEA0E04EE610E699FB13B430343B3
:100F2800C86843EA090343EA08033343034343EA2F
:100F38000C032343B2F1406F6B6101D04B68AB6186
:100F4800BDE8F087034343EA090343EA0803334350
:100F580043EA0C0323436B61F2E767B13B43034366
:100F6800C86843EA090343EA0803034343EA0C0356
:100F780043EA0A03DEE7034343EA090343EA0804B2
:100F880044EA0C0343EA0A03E5E7BEF1000F2CD05C
:100F980046EA0E058B6804684E691543E361D1F88B
:100FA80034C0B6040B69D1E90B8EA7B13B43C868BE
:100FB800B2F1406F43EA080343EA0E0343EA0C0325
:100FC80043EA000343EA060343EA05036361B7D033
:100FD8004B68A361B4E743EA080343EA0E0343EA14
:100FE8000C0333432B436361AAE7D7B146EA0703EF
:100FF800CC6A0068B2F1406F43EA020343EA040393
:101008000C6B43EA04034C6B43EA0403CC6843EAE1
:1010180004034C6943EA8443436191D04B6883617C
:101028008EE7002E8CD0CB6A0068334313430A6BDB
:1010380013434A6B13434A6943EA824343617FE798
:101048002DE9F041DDF8188004460E4615461F4686
:1010580022689368334214BF01230023AB4201D1B5
:10106800002012E0B8F1FF3FF3D0FFF765FDC01B89
:10107800404502D8B8F1000FEAD10423012084F8D2
:101088004130636C43F001036364BDE8F08170474D
:1010980030B5044685B0FFF74FFD0346002C40D01D
:1010A80094F841203AB903902046FFF7F0FF41F247
:1010B8008832039BA2642068A1680268013922F47F
:1010C800F85242EA0122202102602046A26C0092D6
:1010D8000022FFF7B5FF10BB2268E569E3681168D5
:1010E8002B43256A21F07F412B43656821F0D0010D
:1010F80043EA05630B4313605568D4E905310B4394
:10110800216943EA0143084929400B4353601368A6
:1011180043F0010313600123606484F8413005B093
:1011280030BD0120FBE700BFFEF8E0FF704710B5B7
:10113800044658B10268136823F001031360FFF7EF
:10114800F5FF0020606484F8410010BD0120FCE731
:101158002DE9F043044685B017468946FFF7ECFCB5
:1011680094F840200346012A33D00122022684F84D
:10117800402094F84120012A5FFA82F827D1002202
:101188000390202120466264009784F84160FFF7AD
:1011980057FF0546A0B9024649462046FFF796FE86
:1011A800D9F82420039B4AB9424631462046009785
:1011B800FFF746FF054618B92368DE6084F84180CA
:1011C800002384F84030284605B0BDE8F083354652
:1011D800F6E70225F7E7F0B5044685B016460F4650
:1011E800FFF7AAFC94F8402003462568012A49D055
:1011F800012284F8402094F84120012AD0B23FD13E
:1012080000226264002F36D0122284F841202A6915
:101218000132E2622A6967620132A2626A6922F0D7
:1012280040626A61E26A8AB9012202212046009678
:10123800FFF706FF10B923680222DA60012384F859
:101248004130002384F8403005B0F0BD012204216C
:10125800204600960393FFF7F3FE0028EED1626A5A
:10126800039B127885F82020626A01326262E26A82
:10127800013AE262D6E7636C43F008036364E0E78F
:101288000220DEE70220DFE7F0B5044685B0164607
:101298000F46FFF751FC25680346D5F818C094F8A7
:1012A8004020012A4DD0012284F8402094F84120A2
:1012B800012AD0B243D100226264002F3AD0222200
:1012C80084F841202A690132A2632A69276301321E
:1012D8006263696921F0406141F080616961C5F824
:1012E80018C0A26B8AB90122022120460096FFF796
:1012F800A7FE10B923680222DA60012384F841307E
:10130800002384F8403005B0F0BD012206212046B4
:1013180000960393FFF794FE0028EED195F820106D
:10132800226B039B1170226B01322263A26B013A7C
:10133800A263D6E7636C43F008036364E0E7022026
:10134800DEE70220DFE72DE9FF41044615461E4689
:101358008846FFF7F1FB94F840200346012A40D065
:10136800012284F8402094F84120012AD7B236D1CE
:1013780042210022039020466264009684F84110BE
:101388002021FFF75DFE20BB21682A6828698A6250
:101398006A684A62AA68CA620A6822F4400202437A
:1013A800204642F480020A604146EA68C8F82820CC
:1013B8004FF00062FFF78AFD039B3A46082120465A
:1013C8000096FFF73DFE20B923680822DA6084F80A
:1013D8004170002384F8403004B0BDE8F081022059
:1013E800F7E70220F8E7F7B5044616460F46FFF779
:1013F800A3FB94F840200346012A33D0012284F845
:10140800402094F84120012A2AD100228221204636
:10141800626484F84110A16C00912021FFF710FE4E
:101428000546B8B9236872681868082A20F00800C9
:1014380040EA0200186007D132681A631022DA60A5
:101448001A6842F480121A604FF04062394620460A
:10145800FFF73CFD002384F84030284603B0F0BD78
:101468000225F7E70225F8E7F8B5044608B9012090
:101478008CE00368D8075ED42368990700F1AC8034
:101488002368DA0627D59C4A1369916A03F0380362
:10149800082B07D0182B40F0038101F00303012B20
:1014A80040F0FE801368DB0502D5E369802BDED1AE
:1014B800FFF748FB41F20303216A98428E4B00F282
:1014C800E8805A68202922F0F8420CBF42F0804296
:1014D80042EA81625A602368190700F12281236871
:1014E8009A0600F1438123685D071ED5834D2B685A
:1014F80043F480732B60FFF71FFB06462B68DA0561
:1015080040F15981A3687C4D012B40F05B812B6F22
:1015180043F001032B6741F28837FFF70DFB764E46
:101528000546336F9B0740F17381606A002840F0DD
:10153800768100202AE0704A1369916A03F0380323
:10154800102B05D0182B0AD101F00303022B06D16A
:1015580013689A0390D56368002B8DD187E7636879
:10156800654DB3F5803F12D12B6843F480332B606F
:10157800FFF7E2FA604E054633689B033FF57CAF00
:10158800FFF7DAFA401B6428F6D90320F8BDA3B99F
:101598002B6823F480332B602B6823F480232B6083
:1015A800FFF7CAFA06462B689F037FF565AFFFF77A
:1015B800C3FA801B6428F6D9E7E7B3F5A02F2B6898
:1015C80003D143F480232B60CEE723F480332B60D0
:1015D8002B6823F48023CAE74749E2680B69886AC5
:1015E80013F0380303D0182B2BD1800729D10B68AF
:1015F8005B0702D5002A3FF43AAF3F4D2B6823F032
:10160800190313432B60FFF797FA06462B685F0709
:1016180011D5FFF797FA41F20303226998426B68E4
:1016280022D823F47C33402A0CBF43F4003343EA26
:1016380002336B6024E7FFF77FFA801B0228E5D9A5
:10164800A3E72D4D2B68A2B123F0190313432B6098
:10165800FFF772FA06462B685807DAD4FFF76CFAD8
:10166800801B0228F7D990E723F0FE4343EA026380
:10167800DFE723F001032B60FFF75EFA06462B68CD
:1016880059077FF5FDAEFFF757FA801B0228F6D9F8
:101698007BE7DA6822F07C5242EA0162DA601AE7F4
:1016A800E369154D63B32B6843F080032B60FFF7A4
:1016B80043FA06462B68DF0511D5FFF743FA41F2D6
:1016C8000303226A984210D86B68202A23F0F84353
:1016D8000CBF43F0804343EA82636B60FBE6FFF78D
:1016E8002BFA801B0228E5D94FE7EB6823F07C53DF
:1016F80043EA0263EB60EEE60044025800480258F1
:101708002B6823F080032B60FFF716FA06462B6838
:10171800D8057FF5E0AEFFF70FFA801B0228F6D94F
:1017280033E76369A54D83B16B6F43F001036B67C2
:10173800FFF702FA06466B6F9B073FF5D0AEFFF73F
:10174800FBF9801B0228F6D91FE76B6F23F0010312
:101758006B67FFF7F1F906466B6F9F077FF5BFAE22
:10176800FFF7EAF9801B0228F6D90EE7A369934D23
:1017780083B12B6843F480532B60FFF7DDF90646ED
:101788002B6898043FF5AFAEFFF7D6F9801B022807
:10179800F6D9FAE62B6823F480532B60FFF7CCF9CF
:1017A80006462B6899047FF59EAEFFF7C5F9801BA6
:1017B8000228F6D9E9E6FFF7BFF9801B64287FF60F
:1017C8009DAEE2E6B3B92B6F41F2883723F00103EF
:1017D8002B672B6F23F004032B67FFF7ADF9064641
:1017E8002B6F98077FF5A1AEFFF7A6F9801BB842CB
:1017F800F6D9CAE6052B2B6F03D143F004032B67F8
:1018080085E623F001032B672B6F23F0040381E6A1
:10181800FFF792F9401BB8427FF683AEB5E6674DF5
:101828002B6903F03803182B7AD02B68022823F091
:1018380080732B6067D1FFF77FF906462B68990103
:101848005BD4AB6AA26A23F47C7323F003031343CB
:10185800E26A43EA0213AB62636BA26B013B013A93
:101868005B0212049BB202F4FE021343226B013A9C
:10187800C2F308021343E26B013A120602F0FE4279
:1018880013432B63EB6A23F00103EB626B6BA26CCF
:1018980023F47F4323F0F80343EAC2036B63EB6A44
:1018A800226C23F00C031343EB62EB6A626C23F0A7
:1018B80002031343EB62EB6A43F48033EB62EB6A97
:1018C80043F40033EB62EB6A43F48023EB62EB6A88
:1018D80043F00103EB622B6843F080732B60FFF742
:1018E8002BF9364D04462B689A013FF522AEFFF7D7
:1018F80023F9001B0228F6D947E6FFF71DF9801BDC
:1019080002289BD941E6FFF717F904462B689B018B
:101918007FF50FAEFFF710F9001B0228F6D934E661
:101928000128AA6A2B6B3FF431AE02F00301A06ACA
:1019380081427FF49CADC2F30512E16A8A427FF4CA
:1019480096AD226BC3F30801013A91427FF48FAD43
:10195800626BC3F34621013A91427FF488ADA26BD2
:10196800C3F30641013A91427FF481ADE26BC3F3C0
:101978000663013A93427FF47AAD6B6BA26CC3F3B2
:10198800CC039A423FF4D5AD0C4DEB6A23F001032A
:10199800EB62FFF7D1F80646FFF7CEF8B042FBD06E
:1019A8006B6BA26C23F47F4323F0F80343EAC20372
:1019B8006B63EB6A43F00103EB62BAE5004402583B
:1019C800494B1A6902F03802102A30B500F08880B5
:1019D800182A0CD0002A40F085801A68434812F073
:1019E800200F03D01B68C3F3C103D84030BD996AE8
:1019F8009D6ADC6A15F47C7FC5F305105A6BF5D037
:101A0800C2F3CC0204F0010401F0030107EE900ACE
:101A18006243B7EE006A0129B8EEE77A06EE902A2B
:101A2800FAEEE96A4ED002293ED000294AD11A6856
:101A3800920627D519682D4AC1F3C1011B6BCA400C
:101A4800C3F3080307EE902AF8EEE75AC5EE877A43
:101A580007EE103AB8EEC77A37EE267A37EE067AEE
:101A680067EE877A204B1B6BC3F34623013307EEDF
:101A7800103AF8EEC76A87EEA67AFCEEC77A17EE38
:101A8800900AB3E71B6BC3F3080307EE903AF8EE2E
:101A9800E77A77EEA67A77EE867A9FED156AC6EE34
:101AA800076A67EEA67ADDE71B6BC3F3080307EE48
:101AB800903AF8EEE77A77EEA67A77EE867A9FED97
:101AC8000D6AECE71B6BC3F3080307EE903AF8EED8
:101AD800E77A77EEA67A77EE867A9FED076ADEE7F1
:101AE800064883E7064881E7004402580090D0037F
:101AF8000024744C20BCBE4B0024744A40787D01FD
:101B080000093D002DE9F0410D46044610B90120B9
:101B1800BDE8F081884A136803F00F038B42C0F0D8
:101B2800938023685F0700F19B801E070BD58349CC
:101B38006069CA6902F07002904204D9CA6922F049
:101B480070020243CA61D8060BD57C49A069CA69EC
:101B580002F4E062904204D9CA6922F4E0620243C6
:101B6800CA6199060BD57549E0690A6A02F07002E4
:101B7800904204D90A6A22F0700202430A629A0764
:101B88000BD56E49E0688A6902F00F02904204D9C9
:101B98008A6922F00F0202438A61DF076ED4236844
:101BA8009E0700F1A18064490A6802F00F02AA4268
:101BB80000F2A880580700F1B18019070BD55F49DA
:101BC8006069CA6902F07002904204D2CA6922F0C0
:101BD80070020243CA61DA060BD55849A069CA697E
:101BE80002F4E062904204D2CA6922F4E06202433D
:101BF800CA619B060BD5514AE169136A03F0700369
:101C0800994204D2136A23F070030B431362FFF75F
:101C1800D7FE4A494A4A8B69C3F30323D35C03F0CE
:101C28001F03D8408B6903F00F03D35C454A03F0C8
:101C38001F0320FA03F31360434B1860434BBDE8BE
:101C4800F0411868FEF718BF136823F00F030B4321
:101C58001360136803F00F038B427FF458AF60E7FB
:101C6800364920698A6902F0700290427FF65DAFBA
:101C78008A6922F0700202438A6156E72F4BA168F5
:101C88009A6922F470620A439A6161681A680229A3
:101C98001DD112F4003F3FF43AAF1A6941F2883877
:101CA800264F22F007020A431A61FEF745FF06464F
:101CB8003B69626803F03803B3EBC20F3FF46FAFC0
:101CC800FEF73AFF801B4045F2D9032020E703299D
:101CD80002D112F0007FDEE7012902D112F4807FE1
:101CE800D9E712F0040FD6E71449E0688A6902F0D0
:101CF8000F029042BFF457AF8A6922F00F020243E5
:101D08008A6150E70A6822F00F022A430A600A68CB
:101D180002F00F02AA427FF4FAAE4BE707492069A6
:101D28008A6902F070029042BFF447AF8A6922F0D4
:101D3800700202438A6140E70020005200440258C2
:101D4800B81D000804000024000000240C00002432
:101D580070B50D4D0D4C641BA4100026A64209D188
:101D68000B4D0C4C00F018F8641BA4100026A6427A
:101D780005D170BD55F8043B98470136EEE755F894
:101D8800043B98470136F2E7C81D0008C81D000843
:101D9800C81D0008CC1D0008F8B500BFF8BC08BC79
:101DA8009E467047F8B500BFF8BC08BC9E46704711
:101DB80000000000010203040102030406070809E9
:041DC800BD02000850
:041DCC009902000870
:101DD0000090D0030090D00301000000100000002C
:0400000508000A2DB8
:00000001FF
